{"abi":[{"type":"constructor","inputs":[],"stateMutability":"nonpayable"},{"type":"function","name":"eip712Domain","inputs":[],"outputs":[{"name":"fields","type":"bytes1","internalType":"bytes1"},{"name":"name","type":"string","internalType":"string"},{"name":"version","type":"string","internalType":"string"},{"name":"chainId","type":"uint256","internalType":"uint256"},{"name":"verifyingContract","type":"address","internalType":"address"},{"name":"salt","type":"bytes32","internalType":"bytes32"},{"name":"extensions","type":"uint256[]","internalType":"uint256[]"}],"stateMutability":"view"},{"type":"function","name":"open","inputs":[{"name":"order","type":"tuple","internalType":"struct OnchainCrossChainOrder","components":[{"name":"fillDeadline","type":"uint32","internalType":"uint32"},{"name":"orderDataType","type":"bytes32","internalType":"bytes32"},{"name":"orderData","type":"bytes","internalType":"bytes"}]}],"outputs":[],"stateMutability":"nonpayable"},{"type":"function","name":"openFor","inputs":[{"name":"order","type":"tuple","internalType":"struct GaslessCrossChainOrder","components":[{"name":"originSettler","type":"address","internalType":"address"},{"name":"user","type":"address","internalType":"address"},{"name":"nonce","type":"uint256","internalType":"uint256"},{"name":"originChainId","type":"uint256","internalType":"uint256"},{"name":"openDeadline","type":"uint32","internalType":"uint32"},{"name":"fillDeadline","type":"uint32","internalType":"uint32"},{"name":"orderDataType","type":"bytes32","internalType":"bytes32"},{"name":"orderData","type":"bytes","internalType":"bytes"}]},{"name":"signature","type":"bytes","internalType":"bytes"},{"name":"originFillerData","type":"bytes","internalType":"bytes"}],"outputs":[],"stateMutability":"nonpayable"},{"type":"function","name":"resolve","inputs":[{"name":"order","type":"tuple","internalType":"struct OnchainCrossChainOrder","components":[{"name":"fillDeadline","type":"uint32","internalType":"uint32"},{"name":"orderDataType","type":"bytes32","internalType":"bytes32"},{"name":"orderData","type":"bytes","internalType":"bytes"}]}],"outputs":[{"name":"","type":"tuple","internalType":"struct ResolvedCrossChainOrder","components":[{"name":"user","type":"address","internalType":"address"},{"name":"originChainId","type":"uint256","internalType":"uint256"},{"name":"openDeadline","type":"uint32","internalType":"uint32"},{"name":"fillDeadline","type":"uint32","internalType":"uint32"},{"name":"orderId","type":"bytes32","internalType":"bytes32"},{"name":"maxSpent","type":"tuple[]","internalType":"struct Output[]","components":[{"name":"token","type":"bytes32","internalType":"bytes32"},{"name":"amount","type":"uint256","internalType":"uint256"},{"name":"recipient","type":"bytes32","internalType":"bytes32"},{"name":"chainId","type":"uint256","internalType":"uint256"}]},{"name":"minReceived","type":"tuple[]","internalType":"struct Output[]","components":[{"name":"token","type":"bytes32","internalType":"bytes32"},{"name":"amount","type":"uint256","internalType":"uint256"},{"name":"recipient","type":"bytes32","internalType":"bytes32"},{"name":"chainId","type":"uint256","internalType":"uint256"}]},{"name":"fillInstructions","type":"tuple[]","internalType":"struct FillInstruction[]","components":[{"name":"destinationChainId","type":"uint64","internalType":"uint64"},{"name":"destinationSettler","type":"bytes32","internalType":"bytes32"},{"name":"originData","type":"bytes","internalType":"bytes"}]}]}],"stateMutability":"view"},{"type":"function","name":"resolveFor","inputs":[{"name":"order","type":"tuple","internalType":"struct GaslessCrossChainOrder","components":[{"name":"originSettler","type":"address","internalType":"address"},{"name":"user","type":"address","internalType":"address"},{"name":"nonce","type":"uint256","internalType":"uint256"},{"name":"originChainId","type":"uint256","internalType":"uint256"},{"name":"openDeadline","type":"uint32","internalType":"uint32"},{"name":"fillDeadline","type":"uint32","internalType":"uint32"},{"name":"orderDataType","type":"bytes32","internalType":"bytes32"},{"name":"orderData","type":"bytes","internalType":"bytes"}]},{"name":"originFillerData","type":"bytes","internalType":"bytes"}],"outputs":[{"name":"","type":"tuple","internalType":"struct ResolvedCrossChainOrder","components":[{"name":"user","type":"address","internalType":"address"},{"name":"originChainId","type":"uint256","internalType":"uint256"},{"name":"openDeadline","type":"uint32","internalType":"uint32"},{"name":"fillDeadline","type":"uint32","internalType":"uint32"},{"name":"orderId","type":"bytes32","internalType":"bytes32"},{"name":"maxSpent","type":"tuple[]","internalType":"struct Output[]","components":[{"name":"token","type":"bytes32","internalType":"bytes32"},{"name":"amount","type":"uint256","internalType":"uint256"},{"name":"recipient","type":"bytes32","internalType":"bytes32"},{"name":"chainId","type":"uint256","internalType":"uint256"}]},{"name":"minReceived","type":"tuple[]","internalType":"struct Output[]","components":[{"name":"token","type":"bytes32","internalType":"bytes32"},{"name":"amount","type":"uint256","internalType":"uint256"},{"name":"recipient","type":"bytes32","internalType":"bytes32"},{"name":"chainId","type":"uint256","internalType":"uint256"}]},{"name":"fillInstructions","type":"tuple[]","internalType":"struct FillInstruction[]","components":[{"name":"destinationChainId","type":"uint64","internalType":"uint64"},{"name":"destinationSettler","type":"bytes32","internalType":"bytes32"},{"name":"originData","type":"bytes","internalType":"bytes"}]}]}],"stateMutability":"view"},{"type":"event","name":"EIP712DomainChanged","inputs":[],"anonymous":false},{"type":"error","name":"InvalidDomain","inputs":[]},{"type":"error","name":"InvalidOrderDataType","inputs":[]},{"type":"error","name":"InvalidShortString","inputs":[]},{"type":"error","name":"StringTooLong","inputs":[{"name":"str","type":"string","internalType":"string"}]}],"bytecode":{"object":"0x6101606040523461011d57604051610018604082610121565b600c815260208101906b2732bc3ab9a9b2ba3a3632b960a11b825260405191610042604084610121565b600183526020830191603160f81b835261005b81610158565b61012052610068846102ee565b61014052519020918260e05251902080610100524660a0526040519060208201927f8b73c3c69bb8fe3d512ecc4cf759cc79239f7b179b0ffacaa9a75d522b39400f8452604083015260608201524660808201523060a082015260a081526100d160c082610121565b5190206080523060c052604051610ec69081610427823960805181505060a05181505060c05181505060e051815050610100518150506101205181610617015261014051816106400152f35b5f80fd5b601f909101601f19168101906001600160401b0382119082101761014457604052565b634e487b7160e01b5f52604160045260245ffd5b908151602081105f146101d2575090601f815111610192576020815191015160208210610183571790565b5f198260200360031b1b161790565b604460209160405192839163305a27a960e01b83528160048401528051918291826024860152018484015e5f828201840152601f01601f19168101030190fd5b6001600160401b038111610144575f54600181811c911680156102e4575b60208210146102d057601f811161029e575b50602092601f821160011461023f57928192935f92610234575b50508160011b915f199060031b1c1916175f5560ff90565b015190505f8061021c565b601f198216935f8052805f20915f5b868110610286575083600195961061026e575b505050811b015f5560ff90565b01515f1960f88460031b161c191690555f8080610261565b9192602060018192868501518155019401920161024e565b5f8052601f60205f20910160051c810190601f830160051c015b8181106102c55750610202565b5f81556001016102b8565b634e487b7160e01b5f52602260045260245ffd5b90607f16906101f0565b908151602081105f14610319575090601f815111610192576020815191015160208210610183571790565b6001600160401b03811161014457600154600181811c9116801561041c575b60208210146102d057601f81116103e9575b50602092601f821160011461038857928192935f9261037d575b50508160011b915f199060031b1c19161760015560ff90565b015190505f80610364565b601f1982169360015f52805f20915f5b8681106103d157508360019596106103b9575b505050811b0160015560ff90565b01515f1960f88460031b161c191690555f80806103ab565b91926020600181928685015181550194019201610398565b60015f52601f60205f20910160051c810190601f830160051c015b818110610411575061034a565b5f8155600101610404565b90607f169061033856fe60806040526004361015610011575f80fd5b5f3560e01c806322bcd51a146107ef57806341b477dd146107c5578063844fac8e1461071357806384b0196e146105e15763e917a96214610050575f80fd5b346104cc5761005e36610ac1565b7f3a6216026215945cf82c5e1a623f42190bf9fc72dfd04bb2a80e242976f612566020820135036105b9576040810135907fffffffffffffffffffffffffffffffffffffffffffffffffffffffffffffffe1813603018212156104cc570180359067ffffffffffffffff82116104cc57602081019180360383136104cc57602090820181810193909291828403126104cc57359067ffffffffffffffff82116104cc57019160a0838303126104cc576040519160a0830183811067ffffffffffffffff82111761058c57604052602084013567ffffffffffffffff81116104cc576020908501019082601f830112156104cc5781359167ffffffffffffffff831161058c578260051b60208101936101796040519586610b30565b8452602080850191830101918583116104cc5760208101915b8383106104d05750505050508252604083013560208301526060830135604083015260808301359067ffffffffffffffff82116104cc576101dc60a0916020608094870101610c2f565b93846060850152013591015246465f907a184f03e93ff9f4daa797ed6e38ed64bf6a1f0100000000000000004610156104a4575b806d04ee2d6d415b85acef8100000000600a921015610489575b662386f26fc10000811015610475575b6305f5e100811015610464575b612710811015610455575b6064811015610447575b101561043f575b6001810191600a7fffffffffffffffffffffffffffffffffffffffffffffffffffffffffffffffff60216102af61029987610bbf565b966102a76040519889610b30565b808852610bbf565b947fffffffffffffffffffffffffffffffffffffffffffffffffffffffffffffffe06020880196013687378601015b01917f30313233343536373839616263646566000000000000000000000000000000008282061a8353048015610338577fffffffffffffffffffffffffffffffffffffffffffffffffffffffffffffffff600a91926102de565b50506103eb6001602060405161034f604082610b30565b6006815201937f65697031353500000000000000000000000000000000000000000000000000008552602660405194859260066020850198895e7f3a0000000000000000000000000000000000000000000000000000000000000083850152518091602785015e8201015f8382015203017fffffffffffffffffffffffffffffffffffffffffffffffffffffffffffffffe08101835282610b30565b8251905190818114938461042d575b505050501561040557005b7feb127982000000000000000000000000000000000000000000000000000000005f5260045ffd5b6020012091201490505f8080806103fa565b600101610263565b60646002910492019161025c565b61271060049104920191610252565b6305f5e10060089104920191610247565b662386f26fc100006010910492019161023a565b6d04ee2d6d415b85acef81000000006020910492019161022a565b50604090507a184f03e93ff9f4daa797ed6e38ed64bf6a1f0100000000000000004604610210565b5f80fd5b823567ffffffffffffffff81116104cc578201906060828703126104cc57604051916060830183811067ffffffffffffffff82111761058c57604052602081013560018110156104cc578352604081013567ffffffffffffffff81116104cc5789602061053f92840101610c2f565b6020840152606081013567ffffffffffffffff81116104cc5760209101019088601f830112156104cc5760209261057c8a84868096359101610bf9565b6040820152815201920191610192565b7f4e487b71000000000000000000000000000000000000000000000000000000005f52604160045260245ffd5b7fa86819b0000000000000000000000000000000000000000000000000000000005f5260045ffd5b346104cc575f7ffffffffffffffffffffffffffffffffffffffffffffffffffffffffffffffffc3601126104cc576106b761063b7f0000000000000000000000000000000000000000000000000000000000000000610c4d565b6106647f0000000000000000000000000000000000000000000000000000000000000000610dc0565b60206106c5604051926106778385610b30565b5f84525f3681376040519586957f0f00000000000000000000000000000000000000000000000000000000000000875260e08588015260e087019061090d565b90858203604087015261090d565b4660608501523060808501525f60a085015283810360c08501528180845192838152019301915f5b8281106106fc57505050500390f35b8351855286955093810193928101926001016106ed565b346104cc5760607ffffffffffffffffffffffffffffffffffffffffffffffffffffffffffffffffc3601126104cc5760043567ffffffffffffffff81116104cc577ffffffffffffffffffffffffffffffffffffffffffffffffffffffffffffffffc61010091360301126104cc5760243567ffffffffffffffff81116104cc576107a190369060040161088a565b505060443567ffffffffffffffff81116104cc576107c390369060040161088a565b005b346104cc576107d336610ac1565b506107eb6107df610b71565b60405191829182610950565b0390f35b346104cc5760407ffffffffffffffffffffffffffffffffffffffffffffffffffffffffffffffffc3601126104cc5760043567ffffffffffffffff81116104cc577ffffffffffffffffffffffffffffffffffffffffffffffffffffffffffffffffc61010091360301126104cc5760243567ffffffffffffffff81116104cc5761087d90369060040161088a565b50506107eb6107df610b71565b9181601f840112156104cc5782359167ffffffffffffffff83116104cc57602083818601950101116104cc57565b90602080835192838152019201905f5b8181106108d55750505090565b9091926020608060019260608751805183528481015185840152604081015160408401520151606082015201940191019190916108c8565b907fffffffffffffffffffffffffffffffffffffffffffffffffffffffffffffffe0601f602080948051918291828752018686015e5f8582860101520116010190565b906020825273ffffffffffffffffffffffffffffffffffffffff81511660208301526020810151604083015263ffffffff604082015116606083015263ffffffff6060820151166080830152608081015160a083015260e06109f96109c660a084015161010060c08701526101208601906108b8565b60c08401517fffffffffffffffffffffffffffffffffffffffffffffffffffffffffffffffe086830301848701526108b8565b910151916101007fffffffffffffffffffffffffffffffffffffffffffffffffffffffffffffffe082840301910152815180825260208201916020808360051b8301019401925f915b838310610a5157505050505090565b9091929394602080610ab2837fffffffffffffffffffffffffffffffffffffffffffffffffffffffffffffffe08660019603018752606060408b5167ffffffffffffffff81511684528581015186850152015191816040820152019061090d565b97019301930191939290610a42565b60207ffffffffffffffffffffffffffffffffffffffffffffffffffffffffffffffffc8201126104cc576004359067ffffffffffffffff82116104cc577ffffffffffffffffffffffffffffffffffffffffffffffffffffffffffffffffc826060920301126104cc5760040190565b90601f7fffffffffffffffffffffffffffffffffffffffffffffffffffffffffffffffe0910116810190811067ffffffffffffffff82111761058c57604052565b60405190610100820182811067ffffffffffffffff82111761058c57604052606060e0835f81525f60208201525f60408201525f838201525f60808201528260a08201528260c08201520152565b67ffffffffffffffff811161058c57601f017fffffffffffffffffffffffffffffffffffffffffffffffffffffffffffffffe01660200190565b929192610c0582610bbf565b91610c136040519384610b30565b8294818452818301116104cc578281602093845f960137010152565b9080601f830112156104cc57816020610c4a93359101610bf9565b90565b60ff8114610cac5760ff811690601f8211610c845760405191610c71604084610b30565b6020808452838101919036833783525290565b7fb3512b0c000000000000000000000000000000000000000000000000000000005f5260045ffd5b506040515f5f548060011c9160018216918215610db6575b602084108314610d89578385528492908115610d4c5750600114610cef575b610c4a92500382610b30565b505f80805290917f290decd9548b62a8d60345a988386fc84ba6bc95484008f6362f93160ef3e5635b818310610d30575050906020610c4a92820101610ce3565b6020919350806001915483858801015201910190918392610d18565b60209250610c4a9491507fffffffffffffffffffffffffffffffffffffffffffffffffffffffffffffff001682840152151560051b820101610ce3565b7f4e487b71000000000000000000000000000000000000000000000000000000005f52602260045260245ffd5b92607f1692610cc4565b60ff8114610de45760ff811690601f8211610c845760405191610c71604084610b30565b506040515f6001548060011c9160018216918215610e86575b602084108314610d89578385528492908115610d4c5750600114610e2757610c4a92500382610b30565b5060015f90815290917fb10e2d527612073b26eecdfd717e6a320cf44b4afac2b0732d9fcbe2b7fa0cf65b818310610e6a575050906020610c4a92820101610ce3565b6020919350806001915483858801015201910190918392610e52565b92607f1692610dfd56fea264697066735822122046d208646a0281713fe5397c77ab0f6062237764b8254392898989ee7d194b8a64736f6c634300081e0033","linkReferences":{}},"methodIdentifiers":{"eip712Domain()":"84b0196e","open((uint32,bytes32,bytes))":"e917a962","openFor((address,address,uint256,uint256,uint32,uint32,bytes32,bytes),bytes,bytes)":"844fac8e","resolve((uint32,bytes32,bytes))":"41b477dd","resolveFor((address,address,uint256,uint256,uint32,uint32,bytes32,bytes),bytes)":"22bcd51a"},"id":13}